{
  "_format": "hh-sol-artifact-1",
  "contractName": "Upload",
  "sourceName": "contracts/Upload.sol",
  "abi": [
    {
      "inputs": [
        {
          "internalType": "address",
          "name": "_user",
          "type": "address"
        },
        {
          "internalType": "string",
          "name": "url",
          "type": "string"
        }
      ],
      "name": "add",
      "outputs": [],
      "stateMutability": "nonpayable",
      "type": "function"
    },
    {
      "inputs": [
        {
          "internalType": "address",
          "name": "_user",
          "type": "address"
        }
      ],
      "name": "display",
      "outputs": [
        {
          "internalType": "string[]",
          "name": "",
          "type": "string[]"
        }
      ],
      "stateMutability": "view",
      "type": "function"
    },
    {
      "inputs": [
        {
          "internalType": "address",
          "name": "_user",
          "type": "address"
        },
        {
          "internalType": "string",
          "name": "url",
          "type": "string"
        }
      ],
      "name": "remove",
      "outputs": [],
      "stateMutability": "nonpayable",
      "type": "function"
    }
  ],
  "bytecode": "0x608060405234801561001057600080fd5b50610e27806100206000396000f3fe608060405234801561001057600080fd5b50600436106100415760003560e01c806336d6da551461004657806349209fc814610062578063eb39113f1461007e575b600080fd5b610060600480360381019061005b9190610762565b6100ae565b005b61007c60048036038101906100779190610762565b61019b565b005b610098600480360381019061009391906107c2565b6103a0565b6040516100a5919061094a565b60405180910390f35b8273ffffffffffffffffffffffffffffffffffffffff163373ffffffffffffffffffffffffffffffffffffffff161461011c576040517f08c379a0000000000000000000000000000000000000000000000000000000008152600401610113906109ef565b60405180910390fd5b6000808473ffffffffffffffffffffffffffffffffffffffff1673ffffffffffffffffffffffffffffffffffffffff168152602001908152602001600020828290918060018154018082558091505060019003906000526020600020016000909192909192909192909192509190610195929190610525565b50505050565b8273ffffffffffffffffffffffffffffffffffffffff163373ffffffffffffffffffffffffffffffffffffffff1614610209576040517f08c379a000000000000000000000000000000000000000000000000000000000815260040161020090610a81565b60405180910390fd5b60008060008573ffffffffffffffffffffffffffffffffffffffff1673ffffffffffffffffffffffffffffffffffffffff16815260200190815260200160002090506000805b828054905081101561035857848460405161026b929190610ae0565b604051809103902083828154811061028657610285610af9565b5b9060005260206000200160405161029d9190610c1d565b604051809103902014156103455782600184805490506102bd9190610c6d565b815481106102ce576102cd610af9565b5b906000526020600020018382815481106102eb576102ea610af9565b5b9060005260206000200190805461030190610b57565b61030c9291906105ab565b508280548061031e5761031d610ca1565b5b60019003818190600052602060002001600061033a9190610638565b905560019150610358565b808061035090610cd0565b91505061024f565b5080610399576040517f08c379a000000000000000000000000000000000000000000000000000000000815260040161039090610d65565b60405180910390fd5b5050505050565b60603373ffffffffffffffffffffffffffffffffffffffff168273ffffffffffffffffffffffffffffffffffffffff1614610410576040517f08c379a000000000000000000000000000000000000000000000000000000000815260040161040790610dd1565b60405180910390fd5b6000808373ffffffffffffffffffffffffffffffffffffffff1673ffffffffffffffffffffffffffffffffffffffff168152602001908152602001600020805480602002602001604051908101604052809291908181526020016000905b8282101561051a57838290600052602060002001805461048d90610b57565b80601f01602080910402602001604051908101604052809291908181526020018280546104b990610b57565b80156105065780601f106104db57610100808354040283529160200191610506565b820191906000526020600020905b8154815290600101906020018083116104e957829003601f168201915b50505050508152602001906001019061046e565b505050509050919050565b82805461053190610b57565b90600052602060002090601f016020900481019282610553576000855561059a565b82601f1061056c57803560ff191683800117855561059a565b8280016001018555821561059a579182015b8281111561059957823582559160200191906001019061057e565b5b5090506105a79190610678565b5090565b8280546105b790610b57565b90600052602060002090601f0160209004810192826105d95760008555610627565b82601f106105ea5780548555610627565b8280016001018555821561062757600052602060002091601f016020900482015b8281111561062657825482559160010191906001019061060b565b5b5090506106349190610678565b5090565b50805461064490610b57565b6000825580601f106106565750610675565b601f0160209004906000526020600020908101906106749190610678565b5b50565b5b80821115610691576000816000905550600101610679565b5090565b600080fd5b600080fd5b600073ffffffffffffffffffffffffffffffffffffffff82169050919050565b60006106ca8261069f565b9050919050565b6106da816106bf565b81146106e557600080fd5b50565b6000813590506106f7816106d1565b92915050565b600080fd5b600080fd5b600080fd5b60008083601f840112610722576107216106fd565b5b8235905067ffffffffffffffff81111561073f5761073e610702565b5b60208301915083600182028301111561075b5761075a610707565b5b9250929050565b60008060006040848603121561077b5761077a610695565b5b6000610789868287016106e8565b935050602084013567ffffffffffffffff8111156107aa576107a961069a565b5b6107b68682870161070c565b92509250509250925092565b6000602082840312156107d8576107d7610695565b5b60006107e6848285016106e8565b91505092915050565b600081519050919050565b600082825260208201905092915050565b6000819050602082019050919050565b600081519050919050565b600082825260208201905092915050565b60005b8381101561085557808201518184015260208101905061083a565b83811115610864576000848401525b50505050565b6000601f19601f8301169050919050565b60006108868261081b565b6108908185610826565b93506108a0818560208601610837565b6108a98161086a565b840191505092915050565b60006108c0838361087b565b905092915050565b6000602082019050919050565b60006108e0826107ef565b6108ea81856107fa565b9350836020820285016108fc8561080b565b8060005b85811015610938578484038952815161091985826108b4565b9450610924836108c8565b925060208a01995050600181019050610900565b50829750879550505050505092915050565b6000602082019050818103600083015261096481846108d5565b905092915050565b600082825260208201905092915050565b7f4f6e6c792074686520757365722063616e2061646420746865697220696d616760008201527f6573000000000000000000000000000000000000000000000000000000000000602082015250565b60006109d960228361096c565b91506109e48261097d565b604082019050919050565b60006020820190508181036000830152610a08816109cc565b9050919050565b7f4f6e6c792074686520757365722063616e2072656d6f7665207468656972206960008201527f6d61676573000000000000000000000000000000000000000000000000000000602082015250565b6000610a6b60258361096c565b9150610a7682610a0f565b604082019050919050565b60006020820190508181036000830152610a9a81610a5e565b9050919050565b600081905092915050565b82818337600083830152505050565b6000610ac78385610aa1565b9350610ad4838584610aac565b82840190509392505050565b6000610aed828486610abb565b91508190509392505050565b7f4e487b7100000000000000000000000000000000000000000000000000000000600052603260045260246000fd5b7f4e487b7100000000000000000000000000000000000000000000000000000000600052602260045260246000fd5b60006002820490506001821680610b6f57607f821691505b60208210811415610b8357610b82610b28565b5b50919050565b60008190508160005260206000209050919050565b60008154610bab81610b57565b610bb58186610aa1565b94506001821660008114610bd05760018114610be157610c14565b60ff19831686528186019350610c14565b610bea85610b89565b60005b83811015610c0c57815481890152600182019150602081019050610bed565b838801955050505b50505092915050565b6000610c298284610b9e565b915081905092915050565b6000819050919050565b7f4e487b7100000000000000000000000000000000000000000000000000000000600052601160045260246000fd5b6000610c7882610c34565b9150610c8383610c34565b925082821015610c9657610c95610c3e565b5b828203905092915050565b7f4e487b7100000000000000000000000000000000000000000000000000000000600052603160045260246000fd5b6000610cdb82610c34565b91507fffffffffffffffffffffffffffffffffffffffffffffffffffffffffffffffff821415610d0e57610d0d610c3e565b5b600182019050919050565b7f496d616765204964206e6f7420666f756e640000000000000000000000000000600082015250565b6000610d4f60128361096c565b9150610d5a82610d19565b602082019050919050565b60006020820190508181036000830152610d7e81610d42565b9050919050565b7f596f7520646f6e27742068617665204163636573730000000000000000000000600082015250565b6000610dbb60158361096c565b9150610dc682610d85565b602082019050919050565b60006020820190508181036000830152610dea81610dae565b905091905056fea2646970667358221220777e1ee170703e9df87c7cc172d0712a9bcf5ba600a06c6ceb89d0ae9b973df964736f6c63430008090033",
  "linkReferences": {},
  "deployedLinkReferences": {}
}